{
  "_format": "hh-sol-artifact-1",
  "contractName": "NFT",
  "sourceName": "contracts/NFT.sol",
  "abi": [
    {
      "inputs": [],
      "stateMutability": "nonpayable",
      "type": "constructor"
    },
    {
      "anonymous": false,
      "inputs": [
        {
          "indexed": true,
          "internalType": "address",
          "name": "owner",
          "type": "address"
        },
        {
          "indexed": true,
          "internalType": "address",
          "name": "approved",
          "type": "address"
        },
        {
          "indexed": true,
          "internalType": "uint256",
          "name": "tokenId",
          "type": "uint256"
        }
      ],
      "name": "Approval",
      "type": "event"
    },
    {
      "anonymous": false,
      "inputs": [
        {
          "indexed": true,
          "internalType": "address",
          "name": "owner",
          "type": "address"
        },
        {
          "indexed": true,
          "internalType": "address",
          "name": "operator",
          "type": "address"
        },
        {
          "indexed": false,
          "internalType": "bool",
          "name": "approved",
          "type": "bool"
        }
      ],
      "name": "ApprovalForAll",
      "type": "event"
    },
    {
      "anonymous": false,
      "inputs": [
        {
          "indexed": true,
          "internalType": "address",
          "name": "from",
          "type": "address"
        },
        {
          "indexed": true,
          "internalType": "address",
          "name": "to",
          "type": "address"
        },
        {
          "indexed": true,
          "internalType": "uint256",
          "name": "tokenId",
          "type": "uint256"
        }
      ],
      "name": "Transfer",
      "type": "event"
    },
    {
      "inputs": [],
      "name": "_tokenIds",
      "outputs": [
        {
          "internalType": "uint256",
          "name": "_value",
          "type": "uint256"
        }
      ],
      "stateMutability": "view",
      "type": "function"
    },
    {
      "inputs": [
        {
          "internalType": "address",
          "name": "to",
          "type": "address"
        },
        {
          "internalType": "uint256",
          "name": "tokenId",
          "type": "uint256"
        }
      ],
      "name": "approve",
      "outputs": [],
      "stateMutability": "nonpayable",
      "type": "function"
    },
    {
      "inputs": [],
      "name": "authorized",
      "outputs": [
        {
          "internalType": "address",
          "name": "",
          "type": "address"
        }
      ],
      "stateMutability": "view",
      "type": "function"
    },
    {
      "inputs": [
        {
          "internalType": "address",
          "name": "owner",
          "type": "address"
        }
      ],
      "name": "balanceOf",
      "outputs": [
        {
          "internalType": "uint256",
          "name": "",
          "type": "uint256"
        }
      ],
      "stateMutability": "view",
      "type": "function"
    },
    {
      "inputs": [
        {
          "internalType": "string",
          "name": "tokenURI",
          "type": "string"
        }
      ],
      "name": "createToken",
      "outputs": [
        {
          "internalType": "uint256",
          "name": "",
          "type": "uint256"
        }
      ],
      "stateMutability": "nonpayable",
      "type": "function"
    },
    {
      "inputs": [
        {
          "internalType": "uint256",
          "name": "tokenId",
          "type": "uint256"
        }
      ],
      "name": "getApproved",
      "outputs": [
        {
          "internalType": "address",
          "name": "",
          "type": "address"
        }
      ],
      "stateMutability": "view",
      "type": "function"
    },
    {
      "inputs": [
        {
          "internalType": "address",
          "name": "owner",
          "type": "address"
        },
        {
          "internalType": "address",
          "name": "operator",
          "type": "address"
        }
      ],
      "name": "isApprovedForAll",
      "outputs": [
        {
          "internalType": "bool",
          "name": "",
          "type": "bool"
        }
      ],
      "stateMutability": "view",
      "type": "function"
    },
    {
      "inputs": [],
      "name": "name",
      "outputs": [
        {
          "internalType": "string",
          "name": "",
          "type": "string"
        }
      ],
      "stateMutability": "view",
      "type": "function"
    },
    {
      "inputs": [
        {
          "internalType": "uint256",
          "name": "tokenId",
          "type": "uint256"
        }
      ],
      "name": "ownerOf",
      "outputs": [
        {
          "internalType": "address",
          "name": "",
          "type": "address"
        }
      ],
      "stateMutability": "view",
      "type": "function"
    },
    {
      "inputs": [
        {
          "internalType": "address",
          "name": "from",
          "type": "address"
        },
        {
          "internalType": "address",
          "name": "to",
          "type": "address"
        },
        {
          "internalType": "uint256",
          "name": "tokenId",
          "type": "uint256"
        }
      ],
      "name": "safeTransferFrom",
      "outputs": [],
      "stateMutability": "nonpayable",
      "type": "function"
    },
    {
      "inputs": [
        {
          "internalType": "address",
          "name": "from",
          "type": "address"
        },
        {
          "internalType": "address",
          "name": "to",
          "type": "address"
        },
        {
          "internalType": "uint256",
          "name": "tokenId",
          "type": "uint256"
        },
        {
          "internalType": "bytes",
          "name": "_data",
          "type": "bytes"
        }
      ],
      "name": "safeTransferFrom",
      "outputs": [],
      "stateMutability": "nonpayable",
      "type": "function"
    },
    {
      "inputs": [
        {
          "internalType": "address",
          "name": "operator",
          "type": "address"
        },
        {
          "internalType": "bool",
          "name": "approved",
          "type": "bool"
        }
      ],
      "name": "setApprovalForAll",
      "outputs": [],
      "stateMutability": "nonpayable",
      "type": "function"
    },
    {
      "inputs": [
        {
          "internalType": "bytes4",
          "name": "interfaceId",
          "type": "bytes4"
        }
      ],
      "name": "supportsInterface",
      "outputs": [
        {
          "internalType": "bool",
          "name": "",
          "type": "bool"
        }
      ],
      "stateMutability": "view",
      "type": "function"
    },
    {
      "inputs": [],
      "name": "symbol",
      "outputs": [
        {
          "internalType": "string",
          "name": "",
          "type": "string"
        }
      ],
      "stateMutability": "view",
      "type": "function"
    },
    {
      "inputs": [
        {
          "internalType": "uint256",
          "name": "tokenId",
          "type": "uint256"
        }
      ],
      "name": "tokenURI",
      "outputs": [
        {
          "internalType": "string",
          "name": "",
          "type": "string"
        }
      ],
      "stateMutability": "view",
      "type": "function"
    },
    {
      "inputs": [
        {
          "internalType": "address",
          "name": "from",
          "type": "address"
        },
        {
          "internalType": "address",
          "name": "to",
          "type": "address"
        },
        {
          "internalType": "uint256",
          "name": "tokenId",
          "type": "uint256"
        }
      ],
      "name": "transferFrom",
      "outputs": [],
      "stateMutability": "nonpayable",
      "type": "function"
    }
  ],
  "bytecode": "0x60806040523480156200001157600080fd5b506040518060400160405280600e81526020017f576562334c69737420546f6b656e0000000000000000000000000000000000008152506040518060400160405280600481526020017f574c535400000000000000000000000000000000000000000000000000000000815250816000908051906020019062000096929190620000b8565b508060019080519060200190620000af929190620000b8565b505050620001cd565b828054620000c69062000168565b90600052602060002090601f016020900481019282620000ea576000855562000136565b82601f106200010557805160ff191683800117855562000136565b8280016001018555821562000136579182015b828111156200013557825182559160200191906001019062000118565b5b50905062000145919062000149565b5090565b5b80821115620001645760008160009055506001016200014a565b5090565b600060028204905060018216806200018157607f821691505b602082108114156200019857620001976200019e565b5b50919050565b7f4e487b7100000000000000000000000000000000000000000000000000000000600052602260045260246000fd5b612bdc80620001dd6000396000f3fe608060405234801561001057600080fd5b50600436106101005760003560e01c80636352211e11610097578063aa46a40011610066578063aa46a400146102bf578063b88d4fde146102dd578063c87b56dd146102f9578063e985e9c51461032957610100565b80636352211e1461022557806370a082311461025557806395d89b4114610285578063a22cb465146102a357610100565b806323b872dd116100d357806323b872dd1461019f57806342842e0e146101bb57806345576f94146101d7578063456cb7c61461020757610100565b806301ffc9a71461010557806306fdde0314610135578063081812fc14610153578063095ea7b314610183575b600080fd5b61011f600480360381019061011a9190611c48565b610359565b60405161012c919061208f565b60405180910390f35b61013d61043b565b60405161014a91906120aa565b60405180910390f35b61016d60048036038101906101689190611cdb565b6104cd565b60405161017a9190612028565b60405180910390f35b61019d60048036038101906101989190611c0c565b610552565b005b6101b960048036038101906101b49190611b06565b61066a565b005b6101d560048036038101906101d09190611b06565b6106ca565b005b6101f160048036038101906101ec9190611c9a565b6106ea565b6040516101fe91906122cc565b60405180910390f35b61020f610721565b60405161021c9190612028565b60405180910390f35b61023f600480360381019061023a9190611cdb565b610747565b60405161024c9190612028565b60405180910390f35b61026f600480360381019061026a9190611aa1565b6107f9565b60405161027c91906122cc565b60405180910390f35b61028d6108b1565b60405161029a91906120aa565b60405180910390f35b6102bd60048036038101906102b89190611bd0565b610943565b005b6102c7610ac4565b6040516102d491906122cc565b60405180910390f35b6102f760048036038101906102f29190611b55565b610ad0565b005b610313600480360381019061030e9190611cdb565b610b32565b60405161032091906120aa565b60405180910390f35b610343600480360381019061033e9190611aca565b610c84565b604051610350919061208f565b60405180910390f35b60007f80ac58cd000000000000000000000000000000000000000000000000000000007bffffffffffffffffffffffffffffffffffffffffffffffffffffffff1916827bffffffffffffffffffffffffffffffffffffffffffffffffffffffff1916148061042457507f5b5e139f000000000000000000000000000000000000000000000000000000007bffffffffffffffffffffffffffffffffffffffffffffffffffffffff1916827bffffffffffffffffffffffffffffffffffffffffffffffffffffffff1916145b80610434575061043382610d18565b5b9050919050565b60606000805461044a90612522565b80601f016020809104026020016040519081016040528092919081815260200182805461047690612522565b80156104c35780601f10610498576101008083540402835291602001916104c3565b820191906000526020600020905b8154815290600101906020018083116104a657829003601f168201915b5050505050905090565b60006104d882610d82565b610517576040517f08c379a000000000000000000000000000000000000000000000000000000000815260040161050e9061222c565b60405180910390fd5b6004600083815260200190815260200160002060009054906101000a900473ffffffffffffffffffffffffffffffffffffffff169050919050565b600061055d82610747565b90508073ffffffffffffffffffffffffffffffffffffffff168373ffffffffffffffffffffffffffffffffffffffff1614156105ce576040517f08c379a00000000000000000000000000000000000000000000000000000000081526004016105c59061228c565b60405180910390fd5b8073ffffffffffffffffffffffffffffffffffffffff166105ed610dee565b73ffffffffffffffffffffffffffffffffffffffff16148061061c575061061b81610616610dee565b610c84565b5b61065b576040517f08c379a00000000000000000000000000000000000000000000000000000000081526004016106529061216c565b60405180910390fd5b6106658383610df6565b505050565b61067b610675610dee565b82610eaf565b6106ba576040517f08c379a00000000000000000000000000000000000000000000000000000000081526004016106b1906122ac565b60405180910390fd5b6106c5838383610f8d565b505050565b6106e583838360405180602001604052806000815250610ad0565b505050565b60006106f660076111e9565b600061070260076111ff565b905061070e338261120d565b61071881846113db565b80915050919050565b600860009054906101000a900473ffffffffffffffffffffffffffffffffffffffff1681565b6000806002600084815260200190815260200160002060009054906101000a900473ffffffffffffffffffffffffffffffffffffffff169050600073ffffffffffffffffffffffffffffffffffffffff168173ffffffffffffffffffffffffffffffffffffffff1614156107f0576040517f08c379a00000000000000000000000000000000000000000000000000000000081526004016107e7906121ac565b60405180910390fd5b80915050919050565b60008073ffffffffffffffffffffffffffffffffffffffff168273ffffffffffffffffffffffffffffffffffffffff16141561086a576040517f08c379a00000000000000000000000000000000000000000000000000000000081526004016108619061218c565b60405180910390fd5b600360008373ffffffffffffffffffffffffffffffffffffffff1673ffffffffffffffffffffffffffffffffffffffff168152602001908152602001600020549050919050565b6060600180546108c090612522565b80601f01602080910402602001604051908101604052809291908181526020018280546108ec90612522565b80156109395780601f1061090e57610100808354040283529160200191610939565b820191906000526020600020905b81548152906001019060200180831161091c57829003601f168201915b5050505050905090565b61094b610dee565b73ffffffffffffffffffffffffffffffffffffffff168273ffffffffffffffffffffffffffffffffffffffff1614156109b9576040517f08c379a00000000000000000000000000000000000000000000000000000000081526004016109b09061212c565b60405180910390fd5b80600560006109c6610dee565b73ffffffffffffffffffffffffffffffffffffffff1673ffffffffffffffffffffffffffffffffffffffff16815260200190815260200160002060008473ffffffffffffffffffffffffffffffffffffffff1673ffffffffffffffffffffffffffffffffffffffff16815260200190815260200160002060006101000a81548160ff0219169083151502179055508173ffffffffffffffffffffffffffffffffffffffff16610a73610dee565b73ffffffffffffffffffffffffffffffffffffffff167f17307eab39ab6107e8899845ad3d59bd9653f200f220920489ca2b5937696c3183604051610ab8919061208f565b60405180910390a35050565b60078060000154905081565b610ae1610adb610dee565b83610eaf565b610b20576040517f08c379a0000000000000000000000000000000000000000000000000000000008152600401610b17906122ac565b60405180910390fd5b610b2c8484848461144f565b50505050565b6060610b3d82610d82565b610b7c576040517f08c379a0000000000000000000000000000000000000000000000000000000008152600401610b739061220c565b60405180910390fd5b6000600660008481526020019081526020016000208054610b9c90612522565b80601f0160208091040260200160405190810160405280929190818152602001828054610bc890612522565b8015610c155780601f10610bea57610100808354040283529160200191610c15565b820191906000526020600020905b815481529060010190602001808311610bf857829003601f168201915b505050505090506000610c266114ab565b9050600081511415610c3c578192505050610c7f565b600082511115610c71578082604051602001610c59929190612004565b60405160208183030381529060405292505050610c7f565b610c7a846114c2565b925050505b919050565b6000600560008473ffffffffffffffffffffffffffffffffffffffff1673ffffffffffffffffffffffffffffffffffffffff16815260200190815260200160002060008373ffffffffffffffffffffffffffffffffffffffff1673ffffffffffffffffffffffffffffffffffffffff16815260200190815260200160002060009054906101000a900460ff16905092915050565b60007f01ffc9a7000000000000000000000000000000000000000000000000000000007bffffffffffffffffffffffffffffffffffffffffffffffffffffffff1916827bffffffffffffffffffffffffffffffffffffffffffffffffffffffff1916149050919050565b60008073ffffffffffffffffffffffffffffffffffffffff166002600084815260200190815260200160002060009054906101000a900473ffffffffffffffffffffffffffffffffffffffff1673ffffffffffffffffffffffffffffffffffffffff1614159050919050565b600033905090565b816004600083815260200190815260200160002060006101000a81548173ffffffffffffffffffffffffffffffffffffffff021916908373ffffffffffffffffffffffffffffffffffffffff160217905550808273ffffffffffffffffffffffffffffffffffffffff16610e6983610747565b73ffffffffffffffffffffffffffffffffffffffff167f8c5be1e5ebec7d5bd14f71427d1e84f3dd0314c0f7b2291e5b200ac8c7c3b92560405160405180910390a45050565b6000610eba82610d82565b610ef9576040517f08c379a0000000000000000000000000000000000000000000000000000000008152600401610ef09061214c565b60405180910390fd5b6000610f0483610747565b90508073ffffffffffffffffffffffffffffffffffffffff168473ffffffffffffffffffffffffffffffffffffffff161480610f7357508373ffffffffffffffffffffffffffffffffffffffff16610f5b846104cd565b73ffffffffffffffffffffffffffffffffffffffff16145b80610f845750610f838185610c84565b5b91505092915050565b8273ffffffffffffffffffffffffffffffffffffffff16610fad82610747565b73ffffffffffffffffffffffffffffffffffffffff1614611003576040517f08c379a0000000000000000000000000000000000000000000000000000000008152600401610ffa9061224c565b60405180910390fd5b600073ffffffffffffffffffffffffffffffffffffffff168273ffffffffffffffffffffffffffffffffffffffff161415611073576040517f08c379a000000000000000000000000000000000000000000000000000000000815260040161106a9061210c565b60405180910390fd5b61107e838383611569565b611089600082610df6565b6001600360008573ffffffffffffffffffffffffffffffffffffffff1673ffffffffffffffffffffffffffffffffffffffff16815260200190815260200160002060008282546110d99190612438565b925050819055506001600360008473ffffffffffffffffffffffffffffffffffffffff1673ffffffffffffffffffffffffffffffffffffffff168152602001908152602001600020600082825461113091906123b1565b92505081905550816002600083815260200190815260200160002060006101000a81548173ffffffffffffffffffffffffffffffffffffffff021916908373ffffffffffffffffffffffffffffffffffffffff160217905550808273ffffffffffffffffffffffffffffffffffffffff168473ffffffffffffffffffffffffffffffffffffffff167fddf252ad1be2c89b69c2b068fc378daa952ba7f163c4a11628f55a4df523b3ef60405160405180910390a4505050565b6001816000016000828254019250508190555050565b600081600001549050919050565b600073ffffffffffffffffffffffffffffffffffffffff168273ffffffffffffffffffffffffffffffffffffffff16141561127d576040517f08c379a0000000000000000000000000000000000000000000000000000000008152600401611274906121ec565b60405180910390fd5b61128681610d82565b156112c6576040517f08c379a00000000000000000000000000000000000000000000000000000000081526004016112bd906120ec565b60405180910390fd5b6112d260008383611569565b6001600360008473ffffffffffffffffffffffffffffffffffffffff1673ffffffffffffffffffffffffffffffffffffffff168152602001908152602001600020600082825461132291906123b1565b92505081905550816002600083815260200190815260200160002060006101000a81548173ffffffffffffffffffffffffffffffffffffffff021916908373ffffffffffffffffffffffffffffffffffffffff160217905550808273ffffffffffffffffffffffffffffffffffffffff16600073ffffffffffffffffffffffffffffffffffffffff167fddf252ad1be2c89b69c2b068fc378daa952ba7f163c4a11628f55a4df523b3ef60405160405180910390a45050565b6113e482610d82565b611423576040517f08c379a000000000000000000000000000000000000000000000000000000000815260040161141a906121cc565b60405180910390fd5b8060066000848152602001908152602001600020908051906020019061144a9291906118c5565b505050565b61145a848484610f8d565b6114668484848461156e565b6114a5576040517f08c379a000000000000000000000000000000000000000000000000000000000815260040161149c906120cc565b60405180910390fd5b50505050565b606060405180602001604052806000815250905090565b60606114cd82610d82565b61150c576040517f08c379a00000000000000000000000000000000000000000000000000000000081526004016115039061226c565b60405180910390fd5b60006115166114ab565b905060008151116115365760405180602001604052806000815250611561565b8061154084611705565b604051602001611551929190612004565b6040516020818303038152906040525b915050919050565b505050565b600061158f8473ffffffffffffffffffffffffffffffffffffffff166118b2565b156116f8578373ffffffffffffffffffffffffffffffffffffffff1663150b7a026115b8610dee565b8786866040518563ffffffff1660e01b81526004016115da9493929190612043565b602060405180830381600087803b1580156115f457600080fd5b505af192505050801561162557506040513d601f19601f820116820180604052508101906116229190611c71565b60015b6116a8573d8060008114611655576040519150601f19603f3d011682016040523d82523d6000602084013e61165a565b606091505b506000815114156116a0576040517f08c379a0000000000000000000000000000000000000000000000000000000008152600401611697906120cc565b60405180910390fd5b805181602001fd5b63150b7a0260e01b7bffffffffffffffffffffffffffffffffffffffffffffffffffffffff1916817bffffffffffffffffffffffffffffffffffffffffffffffffffffffff1916149150506116fd565b600190505b949350505050565b6060600082141561174d576040518060400160405280600181526020017f300000000000000000000000000000000000000000000000000000000000000081525090506118ad565b600082905060005b6000821461177f57808061176890612585565b915050600a826117789190612407565b9150611755565b60008167ffffffffffffffff8111156117c1577f4e487b7100000000000000000000000000000000000000000000000000000000600052604160045260246000fd5b6040519080825280601f01601f1916602001820160405280156117f35781602001600182028036833780820191505090505b5090505b600085146118a65760018261180c9190612438565b9150600a8561181b91906125ce565b603061182791906123b1565b60f81b818381518110611863577f4e487b7100000000000000000000000000000000000000000000000000000000600052603260045260246000fd5b60200101907effffffffffffffffffffffffffffffffffffffffffffffffffffffffffffff1916908160001a905350600a8561189f9190612407565b94506117f7565b8093505050505b919050565b600080823b905060008111915050919050565b8280546118d190612522565b90600052602060002090601f0160209004810192826118f3576000855561193a565b82601f1061190c57805160ff191683800117855561193a565b8280016001018555821561193a579182015b8281111561193957825182559160200191906001019061191e565b5b509050611947919061194b565b5090565b5b8082111561196457600081600090555060010161194c565b5090565b600061197b6119768461230c565b6122e7565b90508281526020810184848401111561199357600080fd5b61199e8482856124e0565b509392505050565b60006119b96119b48461233d565b6122e7565b9050828152602081018484840111156119d157600080fd5b6119dc8482856124e0565b509392505050565b6000813590506119f381612b4a565b92915050565b600081359050611a0881612b61565b92915050565b600081359050611a1d81612b78565b92915050565b600081519050611a3281612b78565b92915050565b600082601f830112611a4957600080fd5b8135611a59848260208601611968565b91505092915050565b600082601f830112611a7357600080fd5b8135611a838482602086016119a6565b91505092915050565b600081359050611a9b81612b8f565b92915050565b600060208284031215611ab357600080fd5b6000611ac1848285016119e4565b91505092915050565b60008060408385031215611add57600080fd5b6000611aeb858286016119e4565b9250506020611afc858286016119e4565b9150509250929050565b600080600060608486031215611b1b57600080fd5b6000611b29868287016119e4565b9350506020611b3a868287016119e4565b9250506040611b4b86828701611a8c565b9150509250925092565b60008060008060808587031215611b6b57600080fd5b6000611b79878288016119e4565b9450506020611b8a878288016119e4565b9350506040611b9b87828801611a8c565b925050606085013567ffffffffffffffff811115611bb857600080fd5b611bc487828801611a38565b91505092959194509250565b60008060408385031215611be357600080fd5b6000611bf1858286016119e4565b9250506020611c02858286016119f9565b9150509250929050565b60008060408385031215611c1f57600080fd5b6000611c2d858286016119e4565b9250506020611c3e85828601611a8c565b9150509250929050565b600060208284031215611c5a57600080fd5b6000611c6884828501611a0e565b91505092915050565b600060208284031215611c8357600080fd5b6000611c9184828501611a23565b91505092915050565b600060208284031215611cac57600080fd5b600082013567ffffffffffffffff811115611cc657600080fd5b611cd284828501611a62565b91505092915050565b600060208284031215611ced57600080fd5b6000611cfb84828501611a8c565b91505092915050565b611d0d8161246c565b82525050565b611d1c8161247e565b82525050565b6000611d2d8261236e565b611d378185612384565b9350611d478185602086016124ef565b611d50816126bb565b840191505092915050565b6000611d6682612379565b611d708185612395565b9350611d808185602086016124ef565b611d89816126bb565b840191505092915050565b6000611d9f82612379565b611da981856123a6565b9350611db98185602086016124ef565b80840191505092915050565b6000611dd2603283612395565b9150611ddd826126cc565b604082019050919050565b6000611df5601c83612395565b9150611e008261271b565b602082019050919050565b6000611e18602483612395565b9150611e2382612744565b604082019050919050565b6000611e3b601983612395565b9150611e4682612793565b602082019050919050565b6000611e5e602c83612395565b9150611e69826127bc565b604082019050919050565b6000611e81603883612395565b9150611e8c8261280b565b604082019050919050565b6000611ea4602a83612395565b9150611eaf8261285a565b604082019050919050565b6000611ec7602983612395565b9150611ed2826128a9565b604082019050919050565b6000611eea602e83612395565b9150611ef5826128f8565b604082019050919050565b6000611f0d602083612395565b9150611f1882612947565b602082019050919050565b6000611f30603183612395565b9150611f3b82612970565b604082019050919050565b6000611f53602c83612395565b9150611f5e826129bf565b604082019050919050565b6000611f76602983612395565b9150611f8182612a0e565b604082019050919050565b6000611f99602f83612395565b9150611fa482612a5d565b604082019050919050565b6000611fbc602183612395565b9150611fc782612aac565b604082019050919050565b6000611fdf603183612395565b9150611fea82612afb565b604082019050919050565b611ffe816124d6565b82525050565b60006120108285611d94565b915061201c8284611d94565b91508190509392505050565b600060208201905061203d6000830184611d04565b92915050565b60006080820190506120586000830187611d04565b6120656020830186611d04565b6120726040830185611ff5565b81810360608301526120848184611d22565b905095945050505050565b60006020820190506120a46000830184611d13565b92915050565b600060208201905081810360008301526120c48184611d5b565b905092915050565b600060208201905081810360008301526120e581611dc5565b9050919050565b6000602082019050818103600083015261210581611de8565b9050919050565b6000602082019050818103600083015261212581611e0b565b9050919050565b6000602082019050818103600083015261214581611e2e565b9050919050565b6000602082019050818103600083015261216581611e51565b9050919050565b6000602082019050818103600083015261218581611e74565b9050919050565b600060208201905081810360008301526121a581611e97565b9050919050565b600060208201905081810360008301526121c581611eba565b9050919050565b600060208201905081810360008301526121e581611edd565b9050919050565b6000602082019050818103600083015261220581611f00565b9050919050565b6000602082019050818103600083015261222581611f23565b9050919050565b6000602082019050818103600083015261224581611f46565b9050919050565b6000602082019050818103600083015261226581611f69565b9050919050565b6000602082019050818103600083015261228581611f8c565b9050919050565b600060208201905081810360008301526122a581611faf565b9050919050565b600060208201905081810360008301526122c581611fd2565b9050919050565b60006020820190506122e16000830184611ff5565b92915050565b60006122f1612302565b90506122fd8282612554565b919050565b6000604051905090565b600067ffffffffffffffff8211156123275761232661268c565b5b612330826126bb565b9050602081019050919050565b600067ffffffffffffffff8211156123585761235761268c565b5b612361826126bb565b9050602081019050919050565b600081519050919050565b600081519050919050565b600082825260208201905092915050565b600082825260208201905092915050565b600081905092915050565b60006123bc826124d6565b91506123c7836124d6565b9250827fffffffffffffffffffffffffffffffffffffffffffffffffffffffffffffffff038211156123fc576123fb6125ff565b5b828201905092915050565b6000612412826124d6565b915061241d836124d6565b92508261242d5761242c61262e565b5b828204905092915050565b6000612443826124d6565b915061244e836124d6565b925082821015612461576124606125ff565b5b828203905092915050565b6000612477826124b6565b9050919050565b60008115159050919050565b60007fffffffff0000000000000000000000000000000000000000000000000000000082169050919050565b600073ffffffffffffffffffffffffffffffffffffffff82169050919050565b6000819050919050565b82818337600083830152505050565b60005b8381101561250d5780820151818401526020810190506124f2565b8381111561251c576000848401525b50505050565b6000600282049050600182168061253a57607f821691505b6020821081141561254e5761254d61265d565b5b50919050565b61255d826126bb565b810181811067ffffffffffffffff8211171561257c5761257b61268c565b5b80604052505050565b6000612590826124d6565b91507fffffffffffffffffffffffffffffffffffffffffffffffffffffffffffffffff8214156125c3576125c26125ff565b5b600182019050919050565b60006125d9826124d6565b91506125e4836124d6565b9250826125f4576125f361262e565b5b828206905092915050565b7f4e487b7100000000000000000000000000000000000000000000000000000000600052601160045260246000fd5b7f4e487b7100000000000000000000000000000000000000000000000000000000600052601260045260246000fd5b7f4e487b7100000000000000000000000000000000000000000000000000000000600052602260045260246000fd5b7f4e487b7100000000000000000000000000000000000000000000000000000000600052604160045260246000fd5b6000601f19601f8301169050919050565b7f4552433732313a207472616e7366657220746f206e6f6e20455243373231526560008201527f63656976657220696d706c656d656e7465720000000000000000000000000000602082015250565b7f4552433732313a20746f6b656e20616c7265616479206d696e74656400000000600082015250565b7f4552433732313a207472616e7366657220746f20746865207a65726f2061646460008201527f7265737300000000000000000000000000000000000000000000000000000000602082015250565b7f4552433732313a20617070726f766520746f2063616c6c657200000000000000600082015250565b7f4552433732313a206f70657261746f7220717565727920666f72206e6f6e657860008201527f697374656e7420746f6b656e0000000000000000000000000000000000000000602082015250565b7f4552433732313a20617070726f76652063616c6c6572206973206e6f74206f7760008201527f6e6572206e6f7220617070726f76656420666f7220616c6c0000000000000000602082015250565b7f4552433732313a2062616c616e636520717565727920666f7220746865207a6560008201527f726f206164647265737300000000000000000000000000000000000000000000602082015250565b7f4552433732313a206f776e657220717565727920666f72206e6f6e657869737460008201527f656e7420746f6b656e0000000000000000000000000000000000000000000000602082015250565b7f45524337323155524953746f726167653a2055524920736574206f66206e6f6e60008201527f6578697374656e7420746f6b656e000000000000000000000000000000000000602082015250565b7f4552433732313a206d696e7420746f20746865207a65726f2061646472657373600082015250565b7f45524337323155524953746f726167653a2055524920717565727920666f722060008201527f6e6f6e6578697374656e7420746f6b656e000000000000000000000000000000602082015250565b7f4552433732313a20617070726f76656420717565727920666f72206e6f6e657860008201527f697374656e7420746f6b656e0000000000000000000000000000000000000000602082015250565b7f4552433732313a207472616e73666572206f6620746f6b656e2074686174206960008201527f73206e6f74206f776e0000000000000000000000000000000000000000000000602082015250565b7f4552433732314d657461646174613a2055524920717565727920666f72206e6f60008201527f6e6578697374656e7420746f6b656e0000000000000000000000000000000000602082015250565b7f4552433732313a20617070726f76616c20746f2063757272656e74206f776e6560008201527f7200000000000000000000000000000000000000000000000000000000000000602082015250565b7f4552433732313a207472616e736665722063616c6c6572206973206e6f74206f60008201527f776e6572206e6f7220617070726f766564000000000000000000000000000000602082015250565b612b538161246c565b8114612b5e57600080fd5b50565b612b6a8161247e565b8114612b7557600080fd5b50565b612b818161248a565b8114612b8c57600080fd5b50565b612b98816124d6565b8114612ba357600080fd5b5056fea264697066735822122033f7cc821e398b6ecd312692a990d51deaf2b1a72a17db5fa2d332685553b9c064736f6c63430008040033",
  "linkReferences": {},
  "deployedLinkReferences": {}
}